:100000000C9434000C943E000C943E000C943E0082
:100010000C943E000C943E000C943E000C943E0068
:100020000C943E000C943E000C943E000C943E0058
:100030000C943E000C943E000C943E000C943E0048
:100040000C943E000C943E000C943E000C943E0038
:100050000C943E000C943E000C943E000C943E0028
:100060000C943E000C943E0011241FBECFEFD8E04C
:10007000DEBFCDBF0E9440000C9457000C940000DE
:1000800084B18F6084B980E095B1907F95B995B1C6
:10009000982B95B92FEF33ED90E3215030409040ED
:1000A000E1F700C000008F5F8A3071F7ECCFF89461
:0200B000FFCF80
:00000001FF
